{
  "_format": "hh-sol-artifact-1",
  "contractName": "Voter",
  "sourceName": "contracts/Voter.sol",
  "abi": [
    {
      "anonymous": false,
      "inputs": [
        {
          "indexed": false,
          "internalType": "uint256",
          "name": "id",
          "type": "uint256"
        },
        {
          "indexed": false,
          "internalType": "address",
          "name": "owner",
          "type": "address"
        },
        {
          "indexed": false,
          "internalType": "uint256",
          "name": "votingStart",
          "type": "uint256"
        },
        {
          "indexed": false,
          "internalType": "uint256",
          "name": "votingEnd",
          "type": "uint256"
        },
        {
          "indexed": false,
          "internalType": "string",
          "name": "name",
          "type": "string"
        },
        {
          "indexed": false,
          "internalType": "string",
          "name": "description",
          "type": "string"
        }
      ],
      "name": "ProposalCreated",
      "type": "event"
    },
    {
      "anonymous": false,
      "inputs": [
        {
          "indexed": false,
          "internalType": "uint256",
          "name": "proposalId",
          "type": "uint256"
        },
        {
          "indexed": false,
          "internalType": "address",
          "name": "voter",
          "type": "address"
        },
        {
          "indexed": false,
          "internalType": "uint256",
          "name": "positiveVotes",
          "type": "uint256"
        },
        {
          "indexed": false,
          "internalType": "uint256",
          "name": "negativeVotes",
          "type": "uint256"
        },
        {
          "indexed": false,
          "internalType": "address[]",
          "name": "voters",
          "type": "address[]"
        }
      ],
      "name": "ProposalVoted",
      "type": "event"
    },
    {
      "inputs": [
        {
          "internalType": "string",
          "name": "_name",
          "type": "string"
        },
        {
          "internalType": "string",
          "name": "_desc",
          "type": "string"
        },
        {
          "internalType": "uint256",
          "name": "_votingStart",
          "type": "uint256"
        },
        {
          "internalType": "uint256",
          "name": "_votingEnd",
          "type": "uint256"
        }
      ],
      "name": "createProposal",
      "outputs": [],
      "stateMutability": "nonpayable",
      "type": "function"
    },
    {
      "inputs": [
        {
          "internalType": "uint256",
          "name": "proposalIndex",
          "type": "uint256"
        }
      ],
      "name": "getProposalVotes",
      "outputs": [
        {
          "internalType": "uint256",
          "name": "",
          "type": "uint256"
        },
        {
          "internalType": "uint256",
          "name": "",
          "type": "uint256"
        },
        {
          "internalType": "address[]",
          "name": "",
          "type": "address[]"
        }
      ],
      "stateMutability": "view",
      "type": "function"
    },
    {
      "inputs": [],
      "name": "getProposals",
      "outputs": [
        {
          "components": [
            {
              "internalType": "uint256",
              "name": "id",
              "type": "uint256"
            },
            {
              "internalType": "address",
              "name": "owner",
              "type": "address"
            },
            {
              "internalType": "uint256",
              "name": "votingStart",
              "type": "uint256"
            },
            {
              "internalType": "uint256",
              "name": "votingEnd",
              "type": "uint256"
            },
            {
              "internalType": "string",
              "name": "name",
              "type": "string"
            },
            {
              "internalType": "string",
              "name": "description",
              "type": "string"
            }
          ],
          "internalType": "struct Voter.Proposal[]",
          "name": "",
          "type": "tuple[]"
        }
      ],
      "stateMutability": "view",
      "type": "function"
    },
    {
      "inputs": [
        {
          "internalType": "uint256",
          "name": "proposalIndex",
          "type": "uint256"
        }
      ],
      "name": "hasVotedOnProposal",
      "outputs": [
        {
          "internalType": "bool",
          "name": "",
          "type": "bool"
        }
      ],
      "stateMutability": "view",
      "type": "function"
    },
    {
      "inputs": [
        {
          "internalType": "bool",
          "name": "_votedFor",
          "type": "bool"
        },
        {
          "internalType": "uint256",
          "name": "proposalIndex",
          "type": "uint256"
        }
      ],
      "name": "voteOnProposal",
      "outputs": [],
      "stateMutability": "nonpayable",
      "type": "function"
    }
  ],
  "bytecode": "0x608060405234801561001057600080fd5b506118c1806100206000396000f3fe608060405234801561001057600080fd5b50600436106100575760003560e01c80630cb29fcf1461005c57806344066e8d1461007857806347c66140146100a857806362564c48146100da5780636b5e1766146100f8575b600080fd5b61007660048036038101906100719190610d06565b610114565b005b610092600480360381019061008d9190610dd5565b6104e6565b60405161009f91906111c6565b60405180910390f35b6100c260048036038101906100bd9190610dd5565b6105e8565b6040516100d19392919061138a565b60405180910390f35b6100e2610762565b6040516100ef91906111a4565b60405180910390f35b610112600480360381019061010d9190610d42565b610959565b005b806000808281548110610150577f4e487b7100000000000000000000000000000000000000000000000000000000600052603260045260246000fd5b9060005260206000209060060201600401805461016c90611594565b905014156101af576040517f08c379a00000000000000000000000000000000000000000000000000000000081526004016101a690611261565b60405180910390fd5b81600060016000838152602001908152602001600020905060008281548110610201577f4e487b7100000000000000000000000000000000000000000000000000000000600052603260045260246000fd5b906000526020600020906006020160020154421015801561026d575060008281548110610257577f4e487b7100000000000000000000000000000000000000000000000000000000600052603260045260246000fd5b9060005260206000209060060201600301544211155b6102ac576040517f08c379a00000000000000000000000000000000000000000000000000000000081526004016102a390611281565b60405180910390fd5b83600060016000838152602001908152602001600020905060008160000160003373ffffffffffffffffffffffffffffffffffffffff1673ffffffffffffffffffffffffffffffffffffffff1681526020019081526020016000205414610348576040517f08c379a000000000000000000000000000000000000000000000000000000000815260040161033f906112a1565b60405180910390fd5b600060016000888152602001908152602001600020905087156103cb5760018160000160003373ffffffffffffffffffffffffffffffffffffffff1673ffffffffffffffffffffffffffffffffffffffff168152602001908152602001600020819055508060010160008154809291906103c190611611565b919050555061042d565b60028160000160003373ffffffffffffffffffffffffffffffffffffffff1673ffffffffffffffffffffffffffffffffffffffff1681526020019081526020016000208190555080600201600081548092919061042790611611565b91905055505b80600301339080600181540180825580915050600190039060005260206000200160009091909190916101000a81548173ffffffffffffffffffffffffffffffffffffffff021916908373ffffffffffffffffffffffffffffffffffffffff1602179055507f50962f2e3820ce726d4a922bfd8df8deb6ce5968cf027830156415665dfa349c873383600101548460020154856003016040516104d49594939291906112c1565b60405180910390a15050505050505050565b6000816000808281548110610524577f4e487b7100000000000000000000000000000000000000000000000000000000600052603260045260246000fd5b9060005260206000209060060201600401805461054090611594565b90501415610583576040517f08c379a000000000000000000000000000000000000000000000000000000000815260040161057a90611261565b60405180910390fd5b600060016000858152602001908152602001600020905060008160000160003373ffffffffffffffffffffffffffffffffffffffff1673ffffffffffffffffffffffffffffffffffffffff168152602001908152602001600020541192505050919050565b6000806060836000808281548110610629577f4e487b7100000000000000000000000000000000000000000000000000000000600052603260045260246000fd5b9060005260206000209060060201600401805461064590611594565b90501415610688576040517f08c379a000000000000000000000000000000000000000000000000000000000815260040161067f90611261565b60405180910390fd5b60016000868152602001908152602001600020600101546001600087815260200190815260200160002060020154600160008881526020019081526020016000206003018080548060200260200160405190810160405280929190818152602001828054801561074d57602002820191906000526020600020905b8160009054906101000a900473ffffffffffffffffffffffffffffffffffffffff1673ffffffffffffffffffffffffffffffffffffffff1681526020019060010190808311610703575b50505050509050935093509350509193909250565b60606000805480602002602001604051908101604052809291908181526020016000905b8282101561095057838290600052602060002090600602016040518060c0016040529081600082015481526020016001820160009054906101000a900473ffffffffffffffffffffffffffffffffffffffff1673ffffffffffffffffffffffffffffffffffffffff1673ffffffffffffffffffffffffffffffffffffffff168152602001600282015481526020016003820154815260200160048201805461082d90611594565b80601f016020809104026020016040519081016040528092919081815260200182805461085990611594565b80156108a65780601f1061087b576101008083540402835291602001916108a6565b820191906000526020600020905b81548152906001019060200180831161088957829003601f168201915b505050505081526020016005820180546108bf90611594565b80601f01602080910402602001604051908101604052809291908181526020018280546108eb90611594565b80156109385780601f1061090d57610100808354040283529160200191610938565b820191906000526020600020905b81548152906001019060200180831161091b57829003601f168201915b50505050508152505081526020019060010190610786565b50505050905090565b83828260008351116109a0576040517f08c379a000000000000000000000000000000000000000000000000000000000815260040161099790611241565b60405180910390fd5b600082116109e3576040517f08c379a00000000000000000000000000000000000000000000000000000000081526004016109da90611221565b60405180910390fd5b60008111610a26576040517f08c379a0000000000000000000000000000000000000000000000000000000008152600401610a1d906111e1565b60405180910390fd5b818111610a68576040517f08c379a0000000000000000000000000000000000000000000000000000000008152600401610a5f90611201565b60405180910390fd5b60008080549050905060006040518060c001604052808381526020013373ffffffffffffffffffffffffffffffffffffffff1681526020018881526020018781526020018a815260200189815250905060008190806001815401808255809150506001900390600052602060002090600602016000909190919091506000820151816000015560208201518160010160006101000a81548173ffffffffffffffffffffffffffffffffffffffff021916908373ffffffffffffffffffffffffffffffffffffffff16021790555060408201518160020155606082015181600301556080820151816004019080519060200190610b65929190610bd1565b5060a0820151816005019080519060200190610b82929190610bd1565b5050507fd13343fafe34c623111af16dc426a9287142fbbda898c3e02f9689839eb66d3b823389898d8d604051610bbe9695949392919061131b565b60405180910390a1505050505050505050565b828054610bdd90611594565b90600052602060002090601f016020900481019282610bff5760008555610c46565b82601f10610c1857805160ff1916838001178555610c46565b82800160010185558215610c46579182015b82811115610c45578251825591602001919060010190610c2a565b5b509050610c539190610c57565b5090565b5b80821115610c70576000816000905550600101610c58565b5090565b6000610c87610c82846113ed565b6113c8565b905082815260208101848484011115610c9f57600080fd5b610caa848285611552565b509392505050565b600081359050610cc18161185d565b92915050565b600082601f830112610cd857600080fd5b8135610ce8848260208601610c74565b91505092915050565b600081359050610d0081611874565b92915050565b60008060408385031215610d1957600080fd5b6000610d2785828601610cb2565b9250506020610d3885828601610cf1565b9150509250929050565b60008060008060808587031215610d5857600080fd5b600085013567ffffffffffffffff811115610d7257600080fd5b610d7e87828801610cc7565b945050602085013567ffffffffffffffff811115610d9b57600080fd5b610da787828801610cc7565b9350506040610db887828801610cf1565b9250506060610dc987828801610cf1565b91505092959194509250565b600060208284031215610de757600080fd5b6000610df584828501610cf1565b91505092915050565b6000610e0a8383610e2a565b60208301905092915050565b6000610e2283836110f6565b905092915050565b610e338161150a565b82525050565b610e428161150a565b82525050565b6000610e5382611453565b610e5d81856114a6565b9350610e688361141e565b8060005b83811015610e99578151610e808882610dfe565b9750610e8b8361147f565b925050600181019050610e6c565b5085935050505092915050565b6000610eb18261145e565b610ebb81856114a6565b9350610ec68361142e565b8060005b83811015610efe57610edb826116e7565b610ee58882610dfe565b9750610ef08361148c565b925050600181019050610eca565b5085935050505092915050565b6000610f1682611469565b610f2081856114b7565b935083602082028501610f3285611443565b8060005b85811015610f6e5784840389528151610f4f8582610e16565b9450610f5a83611499565b925060208a01995050600181019050610f36565b50829750879550505050505092915050565b610f898161151c565b82525050565b6000610f9a82611474565b610fa481856114c8565b9350610fb4818560208601611561565b610fbd816116fa565b840191505092915050565b6000610fd382611474565b610fdd81856114d9565b9350610fed818560208601611561565b610ff6816116fa565b840191505092915050565b600061100e6018836114d9565b915061101982611718565b602082019050919050565b60006110316025836114d9565b915061103c82611741565b604082019050919050565b6000611054601a836114d9565b915061105f82611790565b602082019050919050565b6000611077601b836114d9565b9150611082826117b9565b602082019050919050565b600061109a6010836114d9565b91506110a5826117e2565b602082019050919050565b60006110bd6016836114d9565b91506110c88261180b565b602082019050919050565b60006110e06019836114d9565b91506110eb82611834565b602082019050919050565b600060c08301600083015161110e6000860182611186565b5060208301516111216020860182610e2a565b5060408301516111346040860182611186565b5060608301516111476060860182611186565b506080830151848203608086015261115f8282610f8f565b91505060a083015184820360a08601526111798282610f8f565b9150508091505092915050565b61118f81611548565b82525050565b61119e81611548565b82525050565b600060208201905081810360008301526111be8184610f0b565b905092915050565b60006020820190506111db6000830184610f80565b92915050565b600060208201905081810360008301526111fa81611001565b9050919050565b6000602082019050818103600083015261121a81611024565b9050919050565b6000602082019050818103600083015261123a81611047565b9050919050565b6000602082019050818103600083015261125a8161106a565b9050919050565b6000602082019050818103600083015261127a8161108d565b9050919050565b6000602082019050818103600083015261129a816110b0565b9050919050565b600060208201905081810360008301526112ba816110d3565b9050919050565b600060a0820190506112d66000830188611195565b6112e36020830187610e39565b6112f06040830186611195565b6112fd6060830185611195565b818103608083015261130f8184610ea6565b90509695505050505050565b600060c0820190506113306000830189611195565b61133d6020830188610e39565b61134a6040830187611195565b6113576060830186611195565b81810360808301526113698185610fc8565b905081810360a083015261137d8184610fc8565b9050979650505050505050565b600060608201905061139f6000830186611195565b6113ac6020830185611195565b81810360408301526113be8184610e48565b9050949350505050565b60006113d26113e3565b90506113de82826115e0565b919050565b6000604051905090565b600067ffffffffffffffff821115611408576114076116b8565b5b611411826116fa565b9050602081019050919050565b6000819050602082019050919050565b60008190508160005260206000209050919050565b6000819050602082019050919050565b600081519050919050565b600081549050919050565b600081519050919050565b600081519050919050565b6000602082019050919050565b6000600182019050919050565b6000602082019050919050565b600082825260208201905092915050565b600082825260208201905092915050565b600082825260208201905092915050565b600082825260208201905092915050565b600073ffffffffffffffffffffffffffffffffffffffff82169050919050565b600061151582611528565b9050919050565b60008115159050919050565b600073ffffffffffffffffffffffffffffffffffffffff82169050919050565b6000819050919050565b82818337600083830152505050565b60005b8381101561157f578082015181840152602081019050611564565b8381111561158e576000848401525b50505050565b600060028204905060018216806115ac57607f821691505b602082108114156115c0576115bf611689565b5b50919050565b60006115d96115d48361170b565b6114ea565b9050919050565b6115e9826116fa565b810181811067ffffffffffffffff82111715611608576116076116b8565b5b80604052505050565b600061161c82611548565b91507fffffffffffffffffffffffffffffffffffffffffffffffffffffffffffffffff82141561164f5761164e61165a565b5b600182019050919050565b7f4e487b7100000000000000000000000000000000000000000000000000000000600052601160045260246000fd5b7f4e487b7100000000000000000000000000000000000000000000000000000000600052602260045260246000fd5b7f4e487b7100000000000000000000000000000000000000000000000000000000600052604160045260246000fd5b60006116f382546115c6565b9050919050565b6000601f19601f8301169050919050565b60008160001c9050919050565b7f566f74696e6720456e64206d7573742062652076616c69640000000000000000600082015250565b7f566f74696e6720456e64206d75737420626520616674657220566f74696e672060008201527f5374617274000000000000000000000000000000000000000000000000000000602082015250565b7f566f74696e67205374617274206d7573742062652076616c6964000000000000600082015250565b7f412050726f706f73616c206e616d652069732072657175697265640000000000600082015250565b7f496e76616c69642050726f706f73616c00000000000000000000000000000000600082015250565b7f4f75747369646520766f74696e672077696e646f773a00000000000000000000600082015250565b7f416c726561647920566f746564206f6e2050726f706f73616c00000000000000600082015250565b6118668161151c565b811461187157600080fd5b50565b61187d81611548565b811461188857600080fd5b5056fea26469706673582212209214a0a3e29fede70ebcaacaa1ce3fccf3f90fc728c8a9dd9500f630cc48dda764736f6c63430008030033",
  "linkReferences": {},
  "deployedLinkReferences": {}
}